:10093500AE0DAF0E7C007D64120812AD0C7C00126A
:1009450008008E0A8F0BC3E50E950BF509E50D958D
:100955000AF508AB07AA06E4C39BFFE49AFE7401F7
:100965009400FDE49400FCE4FB7A01F9F81209E532
:100975008F11AE0AAF0BAB07AA06E4C39BFFE49A3F
:10098500FE74019400FDE49400FCE4FB7A01F9F89F
:100995001209E5AF038F12AE08AF09AB07AA06E44B
:1009A500C39BFFE49AFE74019400FDE49400FCE40B
:1009B500FB7A01F9F81209E58F0FAE08AF09AB070D
:1009C500AA06E4C39BFFE49AFE74019400FDE49437
:1009D50000FCE4FB7A01F9F81209E5AF038F102258
:100A9200758901758CFE758A0BD2AFD2A9D28C22D0
:03000B00020A7F67
:100A7F00B29030900785118C85128A32850F8C8544
:030A8F00108A3298
:100A29002091193091FD740A250CF50C120935E550
:0D0A39000CD394644003750C64120935223F
:100A46002092193092FD74F6250CF50C120935E545
:0D0A56000CC394005003E4F50C1209352286
:100A6300750C32750D03750EE8120A92120935D210
:0C0A730090120A29120A4612093580F57B
:03000000020AA24F
:0C0AA200787FE4F6D8FD758112020A632B
:10080000EF8DF0A4A8F0CF8CF0A428CE8DF0A42E0C
:02081000FE22C6
:10081200BC000BBE0029EF8DF084FFADF022E4CCCA
:10082200F875F008EF2FFFEE33FEEC33FCEE9DEC93
:10083200984005FCEE9DFE0FD5F0E9E4CEFD22EDD9
:10084200F8F5F0EE8420D21CFEADF075F008EF2F23
:10085200FFED33FD4007985006D5F0F222C398FD14
:050862000FD5F0EA22B1
:1009E500C2D5E830E70FB2D5E4C39BFBE49AFAE43D
:1009F50099F9E498F8EC30E717B2D5120A1B1208FA
:100A0500A3E4C39BFBE49AFAE499F9E498F880031C
:100A15001208A330D50DE4C39FFFE49EFEE49DFDBF
:040A2500E49CFC222F
:1008670075F008758200EF2FFFEE33FECD33CDCC48
:1008770033CCC58233C5829BED9AEC99E5829840CB
:100887000CF582EE9BFEED9AFDEC99FC0FD5F0D6A8
:10089700E4CEFBE4CDFAE4CCF9A88222B800C1B9D2
:1008A7000059BA002DEC8BF084CFCECDFCE5F0CB10
:1008B700F97818EF2FFFEE33FEED33FDEC33FCEB49
:1008C70033FB10D703994004EB99FB0FD8E5E4F904
:1008D700FA227818EF2FFFEE33FEED33FDEC33FCF1
:1008E700C933C910D7059BE99A4007EC9BFCE99AE5
:1008F700F90FD8E0E4C9FAE4CCFB2275F010EF2F2A
:10090700FFEE33FEED33FDCC33CCC833C810D70729
:100917009BEC9AE899400AED9BFDEC9AFCE899F864
:0E0927000FD5F0DAE4CDFBE4CCFAE4C8F922F7
:00000001FF
