:10034C00E4F524F525AE24AF25EE3395E0FDFC1243
:10035C0001E7AE24AF25EE3395E0FDFC1201E71268
:07036C0002D612031280EB20
:1002D60020B03820B00FAE24AF25EE3395E0FDFCFC
:1002E6001201E780EE0525E52570020524D3940F5B
:1002F600E524648094A7400675242775250FAE244F
:0C030600AF25EE3395E0FDFC1201E7226C
:1003120020B03620B10FAE24AF25EE3395E0FDFCC0
:100322001201E780EEE525152570021524C3E524A8
:1003320064809480500675242775250FAE24AF255E
:0A034200EE3395E0FDFC1201E72206
:0A03C8003F065B4F666D7D077F6FF7
:1003A900EF1392A0EFC3131392A1EF1313543F134A
:0303B90092A222EB
:0801E7008F0B8E0A8D098C08B4
:1001EF00780C7C007D007BFF7A0379C87E007F0A44
:1001FF001200D3E4F51EAF0BAE0AAD09AC08EC4DFF
:10020F004E4F7012FF1203A9740C2516F8E6F580F5
:10021F000F7E00120373AF0BAE0AAD09AC08EC4DA5
:10022F004E4F602FE47B0AFAF9F8120292AF037473
:10023F0016251EF8A607AF0BAE0AAD09AC08E47B76
:10024F000AFAF9F81202928F0B8E0A8D098C0805A3
:10025F001E80C3851E1FE4F51EC3E51F6480F8E5ED
:10026F001E648098501CAF1E1203A97416251EF829
:10027F00E6240CF8E6F5807F017E00120373051E5D
:02028F0080D716
:01029100224A
:10037300E4FDFCC3ED9FEC9E5015E4FBFA0BBB00C0
:0F038300010AEB647B4A70F50DBD00010C80E4AC
:010392002248
:100393008F238E228D218C20782074FF1200FBEC9A
:0603A3004D4E4F70F322E5
:030000000203BC3C
:0C03BC00787FE4F6D8FD75812502034C23
:10000300E709F608DFFA8046E709F208DFFA803EDF
:1000130088828C83E709F0A3DFFA8032E309F608CC
:10002300DFFA8078E309F208DFFA807088828C8334
:10003300E309F0A3DFFA806489828A83E0A3F608E8
:10004300DFFA805889828A83E0A3F208DFFA804CC2
:1000530080D280FA80C680D4806980F28033801099
:1000630080A680EA809A80A880DA80E280CA803302
:1000730089828A83ECFAE493A3C8C582C8CCC5837A
:10008300CCF0A3C8C582C8CCC583CCDFE9DEE7804A
:100093000D89828A83E493A3F608DFF9ECFAA9F0C9
:1000A300EDFB2289828A83ECFAE0A3C8C582C8CC1F
:1000B300C583CCF0A3C8C582C8CCC583CCDFEADE38
:1000C300E880DB89828A83E493A3F208DFF980CC9A
:1000D30088F0EF60010E4E60C388F0ED2402B40493
:1000E3000050B9F582EB2402B4040050AF2323453A
:0600F3008223900053730C
:10029200C2D5E830E70FB2D5E4C39BFBE49AFAE497
:1002A20099F9E498F8EC30E717B2D51202C81201B6
:1002B20055E4C39BFBE49AFAE499F9E498F88003C5
:1002C20012015530D50DE4C39FFFE49EFEE49DFD6F
:0402D200E49CFC228A
:1000F9007401FF3395E0FEFDFC080808E6CF2FF6F2
:1001090018E6CE3EF618E6CD3DF618E6CC3CF622CA
:1001190075F008758200EF2FFFEE33FECD33CDCC9D
:1001290033CCC58233C5829BED9AEC99E582984020
:100139000CF582EE9BFEED9AFDEC99FC0FD5F0D6FD
:10014900E4CEFBE4CDFAE4CCF9A88222B800C1B927
:100159000059BA002DEC8BF084CFCECDFCE5F0CB65
:10016900F97818EF2FFFEE33FEED33FDEC33FCEB9E
:1001790033FB10D703994004EB99FB0FD8E5E4F959
:10018900FA227818EF2FFFEE33FEED33FDEC33FC46
:10019900C933C910D7059BE99A4007EC9BFCE99A3A
:1001A900F90FD8E0E4C9FAE4CCFB2275F010EF2F7F
:1001B900FFEE33FEED33FDCC33CCC833C810D7077F
:1001C9009BEC9AE899400AED9BFDEC9AFCE899F8BA
:0E01D9000FD5F0DAE4CDFBE4CCFAE4C8F9224D
:00000001FF
