:100DA70009444F4E4720484F20534F002564203AAF
:090DB700202564203A2025640087
:100D8D00750800750901750C00750D1CE4F50EF55F
:0A0D9D000F120DEC120BEA020E001B
:100E0000758901758C3C758AB0D2AFD2A9D28C227B
:03000B00020BEAFB
:100BEA00C0E0C0F0C083C082C0D075D000C000C0D1
:100BFA0001C002C003C004C005C006C007C28D758B
:100C0A008C3C758AB0050BE50B7002050A64144525
:100C1A000A703AF50AF50B050FE50F7002050E6426
:100C2A003C450E7028F50EF50F050DE50D70020511
:100C3A000C643C450C7016F50CF50D0509E50970B8
:100C4A00020508641845087004F508F509120C75C0
:100C5A00D007D006D005D004D003D002D001D000EE
:0B0C6A00D0D0D082D083D0F0D0E03298
:100C75007D017F01120DC07535FF75360D7537A7DE
:100C85007B007A00792212085C7B007A00792212B7
:100C95000CF97535FF75360D7537B3850838850937
:100CA50039850C3A850D3B850E3C850F3D7B007AD9
:100CB50000792212085C7D027F02120DC07B007A4A
:060CC500007922020CF987
:100E1000C2A0D2A1D287308706C2A2D2A280F72276
:0D0E2000C2A0C2A18F80D2A2C2A2020E10F9
:060CF9008B328A338934BE
:100CFF00120DD78F36E4F535E535C395365017AB62
:100D0F0032AA33A934853582758300120B5CFF122A
:060D1F000E2D053580E2F7
:010D250022AB
:100DC000AE07BE0107ED247FFF120E20BE0207ED25
:070DD00024BFFF120E2022D8
:050E46007F01020E20F7
:0D0E2D00D2A0C2A18F80D2A2C2A2020E10DC
:100DEC007F38120E207F0C120E207F01120E207FF6
:040DFC0080020E2043
:060D4D008B158A168917C0
:100D5300E4FDFCAB15AA16A9178D828C83120B5CDC
:0D0D6300FF600A120E2D0DBD00010C80E690
:010D70002260
:100CCB008F108D118B128A138914E5107008E511A2
:100CDB00540F4480800BE510B4010AE511540F4406
:0E0CEB00C0FF120E20AB12AA13A914020D4D69
:100D71008B188A19891A7F38120E207F0E120E20C5
:0C0D8100120000AB18AA19A91A020CF904
:03000000020E3AB3
:0C0E3A00787FE4F6D8FD758145020D8D2F
:100B5C00BB010CE58229F582E5833AF583E022504E
:100B6C0006E92582F8E622BBFE06E92582F8E22298
:0D0B7C00E58229F582E5833AF583E49322B2
:10080000E5412435F8E60541227832300702783593
:10081000E475F001120BB4020B892000EB7F2ED29D
:10082000008018EF540F2490D43440D4FF30040BD0
:10083000EF24BFB41A0050032461FFE542600215A3
:10084000420545E5457002054430070D7832E475F0
:10085000F001120BB4EF020BA2020D267403D207B3
:100860008003E4C207F5418B328A338934E4F542D0
:10087000F544F545E54260077F2012083B80F57599
:1008800043FFC201C200C202C203C205C206C208BF
:10089000120809FF700D3007057F0012084CAF45A4
:1008A000AE4422B4255FC2D5C204120809FF24D089
:1008B000B40A00501A75F00A784230D50508B6FF20
:1008C0000106C6A426F620D5047002D20380D924DE
:1008D000CFB41A00EF5004C2E5D204020A4CD20190
:1008E00080C6D20080C0D20280BCD2D580BAD205E8
:1008F00080B47F2012083B2002077401B5420040FB
:10090000F1120800FF12083B020874D208D20680D8
:1009100095120800FB120800FA120800F94A4B7001
:1009200006791D7A0B7BFF20022EE542602A7E00AD
:100930008E82758300120B5C60060EEE654370F0CC
:10094000C2D5EBC0E0EAC0E0E9C0E0EE120A93D005
:10095000E0F9D0E0FAD0E0FB120B89FF60AAEBC00F
:10096000E0EAC0E0E9C0E012083BD0E02401F9D0A1
:10097000E03400FAD0E0FBE5430460DCD543D980E5
:10098000877BFF7A0A798FD202809C791080027966
:1009900008C206C2088008D2D5790A8004790AC242
:1009A000D5E543047002F543E4FAFDFEFF120800AA
:1009B000FC7B08200113120800FD7B1030000A1296
:1009C0000800FE120800FF7B20EC3382D592D55040
:1009D00013C3E43000069FFFE49EFEE42001039D64
:1009E000FDE49CFCE4CBF8C201EC700CCFCECDCC86
:1009F000E824F8F870F38017C3EF33FFEE33FEED11
:100A000033FDEC33FCEB33FB994002FB0FD8E9EBF1
:100A1000300105F8D0E0C448B201C0E00AEC4D4E08
:100A20004F78207B0070C2EAB5430040BCC0E012A2
:100A30000A95D0F0D0E0200104C4C0E0C4B201C0E7
:100A4000F0120824D0F0D5F0EB020874120BC409A0
:100A50001153098B5808E24C08DE42098F4F099761
:0F0A60004409974908F743099D550981460981C3
:100A6F00450981470B3D5008E62D08EA2E090D2B4D
:100A7F0008EE23090B200B262A08A64800000905BB
:100A8F003F3F3F00790AA2D5200314300509B91062
:100A9F00020404B9080104A2D52006025001042063
:100AAF0002689202B542005034C0E07F2030031933
:100ABF007F30A20272067205500F120AECC202C2F8
:100ACF0006C205C2087F30800F300503E9C0E0126F
:100ADF00083B300503D0E0F9D0E0B542CC30051724
:100AEF007F30B9100C12083B7F583004077F788095
:100AFF0003B9080312083B3002057F2D02083B7F24
:100B0F00202008F87F2B2006F322920280CF286E38
:100B1F00756C6C2900D2011208003001F8C20178FF
:100B2F004230D50108F60208A62D50434958120845
:100B3F00002403B405004001E4900B389312082CF5
:0D0B4F00743A12082CD20375420402098B7F
:100DD700E4FFFE120B89600C0FEF70010E09E9703A
:050DE700F20A80EF227A
:100B8900BB010689828A83E0225002E722BBFE026A
:090B9900E32289828A83E493229D
:100BA200BB010689828A83F0225002F722BBFE0132
:020BB200F3222C
:100BB400FAE6FB0808E6F925F0F618E6CA3AF62242
:100BC400D083D082F8E4937012740193700DA3A3C0
:100BD40093F8740193F5828883E4737402936860D4
:060BE400EFA3A3A380DFD4
:100D2600EFB40A07740D120D31740A309811A899A0
:100D3600B8130CC2983098FDA899C298B811F6302D
:070D460099FDC299F5992205
:00000001FF
