:0B030B007FD17EDF7DD67C000201E781
:0A0316003F065B4F666D7D077F6FA9
:1002EC00EF1392A0EFC3131392A1EF1313543F1308
:0302FC0092A222A9
:0801E7008F0B8E0A8D098C08B4
:1001EF00780C7C007D007BFF7A0379167E007F0AF6
:1001FF001200D3E4F51EAF0BAE0AAD09AC08EC4DFF
:10020F004E4F602FE47B0AFAF9F8120272AF0374B3
:10021F0016251EF8A607AF0BAE0AAD09AC08E47B96
:10022F000AFAF9F81202728F0B8E0A8D098C0805E3
:10023F001E80C3851E1FE4F51EC3E51F6480F8E50D
:10024F001E648098501CAF1E1202EC7416251EF807
:10025F00E6240CF8E6F5807F017E001202B6051E3B
:02026F0080D736
:01027100226A
:1002B600E4FDFCC3ED9FEC9E5015E4FBFA0BBB007E
:0F02C600010AEB647B4A70F50DBD00010C80E46A
:0102D5002206
:1002D6008F238E228D218C20782074FF1200FBEC58
:0602E6004D4E4F70F322A3
:030000000202FFFA
:0C02FF00787FE4F6D8FD75812302030B24
:10000300E709F608DFFA8046E709F208DFFA803EDF
:1000130088828C83E709F0A3DFFA8032E309F608CC
:10002300DFFA8078E309F208DFFA807088828C8334
:10003300E309F0A3DFFA806489828A83E0A3F608E8
:10004300DFFA805889828A83E0A3F208DFFA804CC2
:1000530080D280FA80C680D4806980F28033801099
:1000630080A680EA809A80A880DA80E280CA803302
:1000730089828A83ECFAE493A3C8C582C8CCC5837A
:10008300CCF0A3C8C582C8CCC583CCDFE9DEE7804A
:100093000D89828A83E493A3F608DFF9ECFAA9F0C9
:1000A300EDFB2289828A83ECFAE0A3C8C582C8CC1F
:1000B300C583CCF0A3C8C582C8CCC583CCDFEADE38
:1000C300E880DB89828A83E493A3F208DFF980CC9A
:1000D30088F0EF60010E4E60C388F0ED2402B40493
:1000E3000050B9F582EB2402B4040050AF2323453A
:0600F3008223900053730C
:10027200C2D5E830E70FB2D5E4C39BFBE49AFAE4B7
:1002820099F9E498F8EC30E717B2D51202A81201F6
:1002920055E4C39BFBE49AFAE499F9E498F88003E5
:1002A20012015530D50DE4C39FFFE49EFEE49DFD8F
:0402B200E49CFC22AA
:1000F9007401FF3395E0FEFDFC080808E6CF2FF6F2
:1001090018E6CE3EF618E6CD3DF618E6CC3CF622CA
:1001190075F008758200EF2FFFEE33FECD33CDCC9D
:1001290033CCC58233C5829BED9AEC99E582984020
:100139000CF582EE9BFEED9AFDEC99FC0FD5F0D6FD
:10014900E4CEFBE4CDFAE4CCF9A88222B800C1B927
:100159000059BA002DEC8BF084CFCECDFCE5F0CB65
:10016900F97818EF2FFFEE33FEED33FDEC33FCEB9E
:1001790033FB10D703994004EB99FB0FD8E5E4F959
:10018900FA227818EF2FFFEE33FEED33FDEC33FC46
:10019900C933C910D7059BE99A4007EC9BFCE99A3A
:1001A900F90FD8E0E4C9FAE4CCFB2275F010EF2F7F
:1001B900FFEE33FEED33FDCC33CCC833C810D7077F
:1001C9009BEC9AE899400AED9BFDEC9AFCE899F8BA
:0E01D9000FD5F0DAE4CDFBE4CCFAE4C8F9224D
:00000001FF
