:1005A00009444F4E4720484F20534F002564203ABE
:0905B000202564203A2025640096
:1005670075080075090F750A00750B19750C00756C
:0D0577000D371205FB12040D12046380F80D
:10040D007D017F011205B97535FF7536057537A06C
:10041D007B007A00792212005F7B007A007922122C
:10042D0004CF7535FF7536057537AC8508388509E8
:10043D0039850A3A850B3B850C3C850D3D7B007A51
:10044D0000792212005F7D027F021205B97B007ACE
:06045D000079220204CF29
:100463007FE87E03120547050DE50D7002050C6458
:100473003C450C7028F50CF50D050BE50B700205DA
:100483000A643C450A7016F50AF50B0509E509707F
:0E049300020508641845087004F508F50922F2
:10060F00C2A0D2A1D287308706C2A2D2A280F7227F
:0D061F00C2A0C2A18F80D2A2C2A202060F0B
:0604CF008B328A338934F0
:1004D5001205E68F36E4F535E535C395365017AB8D
:1004E50032AA33A93485358275830012035FFF1262
:0604F500062C053580E233
:0104FB0022DE
:1005B900AE07BE0107ED247FFF12061FBE0207ED3D
:0705C90024BFFF12061F22F0
:050645007F0102061F09
:0D062C00D2A0C2A18F80D2A2C2A202060FEE
:1005FB007F3812061F7F0C12061F7F0112061F7F0A
:04060B008002061F44
:060523008B178A188919EC
:10052900E4FDFCAB17AA18A9198D828C8312035F0D
:0D053900FF600A12062C0DBD00010C80E6CB
:010546002292
:1004A1008F0E8D0F8B108A118912E50E7008E50FE2
:1004B100540F4480800BE50EB4010AE50F540F443C
:0E04C100C0FF12061FAB10AA11A912020523DC
:100584008B1A8A1B891C7F3812061F7F0E12061FC6
:0C059400120547AB1AAA1BA91C0204CFD9
:10054700E4FDFCC3ED9FEC9E5015E4FBFA0BBB00EA
:0F055700010AEB647B4A70F50DBD00010C80E4D6
:010566002272
:1005D0008F168E158D148C13781374FF12038EEC06
:0605E0004D4E4F70F322A6
:03000000020639BC
:0C063900787FE4F6D8FD75814502056766
:10035F00BB010CE58229F582E5833AF583E0225053
:10036F0006E92582F8E622BBFE06E92582F8E2229D
:0D037F00E58229F582E5833AF583E49322B7
:10038C007401FF3395E0FEFDFC080808E6CF2FF65C
:10039C0018E6CE3EF618E6CD3DF618E6CC3CF62235
:10000300E5412435F8E60541227832300702783598
:10001300E475F0011203D70203AC2000EB7F2ED26C
:10002300008018EF540F2490D43440D4FF30040BD5
:10003300EF24BFB41A0050032461FFE542600215A8
:10004300420545E5457002054430070D7832E475F5
:10005300F0011203D7EF0203C50204FC7403D207B5
:100063008003E4C207F5418B328A338934E4F542D5
:10007300F544F545E54260077F2012003E80F575A3
:1000830043FFC201C200C202C203C205C206C208C4
:1000930012000CFF700D3007057F0012004FAF45B3
:1000A300AE4422B4255FC2D5C20412000CFF24D093
:1000B300B40A00501A75F00A784230D50508B6FF25
:1000C3000106C6A426F620D5047002D20380D924E3
:1000D300CFB41A00EF5004C2E5D20402024FD2019A
:1000E30080C6D20080C0D20280BCD2D580BAD205ED
:1000F30080B47F2012003E2002077401B542004005
:10010300F1120003FF12003E020077D208D20680EC
:1001130095120003FB120003FA120003F94A4B7015
:100123000679207A037BFF20022EE542602A7E00B7
:100133008E8275830012035F60060EEE654370F0D6
:10014300C2D5EBC0E0EAC0E0E9C0E0EE120296D00F
:10015300E0F9D0E0FAD0E0FB1203ACFF60AAEBC0F9
:10016300E0EAC0E0E9C0E012003ED0E02401F9D0AB
:10017300E03400FAD0E0FBE5430460DCD543D980EA
:10018300877BFF7A027992D202809C791080027970
:1001930008C206C2088008D2D5790A8004790AC247
:1001A300D5E543047002F543E4FAFDFEFF120003B4
:1001B300FC7B08200113120003FD7B1030000A12A0
:1001C3000003FE120003FF7B20EC3382D592D5504F
:1001D30013C3E43000069FFFE49EFEE42001039D69
:1001E300FDE49CFCE4CBF8C201EC700CCFCECDCC8B
:1001F300E824F8F870F38017C3EF33FFEE33FEED16
:1002030033FDEC33FCEB33FB994002FB0FD8E9EBF6
:10021300300105F8D0E0C448B201C0E00AEC4D4E0D
:100223004F78207B0070C2EAB5430040BCC0E012A7
:100233000298D0F0D0E0200104C4C0E0C4B201C0F1
:10024300F0120027D0F0D5F0EB0200771203E7019C
:100253001453018E5800E54C00E14201924F019A7C
:0F02630044019A4900FA4301A0550184460184E1
:100272004501844703405000E92D00ED2E01102B6B
:1002820000F123010E2003292A00A94800000108D9
:100292003F3F3F00790AA2D5200314300509B91067
:1002A200020404B9080104A2D52006025001042068
:1002B20002689202B542005034C0E07F2030031938
:1002C2007F30A20272067205500F1202EFC202C202
:1002D20006C205C2087F30800F300503E9C0E01274
:1002E200003E300503D0E0F9D0E0B542CC3005172E
:1002F2007F30B9100C12003E7F583004077F78809F
:1003020003B9080312003E3002057F2D02003E7F32
:10031200202008F87F2B2006F322920280CF286E3D
:10032200756C6C2900D2011200033001F8C2017809
:100332004230D50108F60200A92D50434958120057
:10034200032403B405004001E490033B9312002F01
:0D035200743A12002FD20375420402018E8E
:1005E600E4FFFE1203AC600C0FEF70010E09E97018
:0505F600F20A80EF2273
:1003AC00BB010689828A83E0225002E722BBFE024F
:0903BC00E32289828A83E4932282
:1003C500BB010689828A83F0225002F722BBFE0117
:0203D500F32211
:1003D700FAE6FB0808E6F925F0F618E6CA3AF62227
:1003E700D083D082F8E4937012740193700DA3A3A5
:1003F70093F8740193F5828883E4737402936860B9
:06040700EFA3A3A380DFB8
:1004FC00EFB40A07740D120507740A309811A89905
:10050C00B8130CC2983098FDA899C298B811F6305F
:07051C0099FDC299F5992237
:00000001FF
